:1000000000800010FD000000DB090000DD09000099
:1000100000000000000000000000000000000000E0
:10002000000000000000000000000000DF090000E8
:100030000000000000000000E1090000953700000A
:10004000D9090000D9090000D9090000D909000028
:10005000D9090000D9090000D9090000D909000018
:10006000D9090000D9090000D9090000D909000008
:10007000D9090000D9090000D9090000D9090000F8
:10008000D9090000D9090000D9090000D9090000E8
:10009000D9090000D9090000D9090000D9090000D8
:1000A000D9090000D9090000D9090000D9090000C8
:1000B000D9090000D9090000D9090000000000009A
:1000C000B89200000001001000270000B892000064
:1000D0000000002000000000B89200000040002056
:1000E0000000000000280010D443000000000020A1
:1000F00000000000004000200000000010B5104C7F
:10010000104B9C4206D2A2686168206800F069FC2E
:100110000C34F5E70C4B9C4205D26168206800F076
:1001200069FC0834F6E700F0C1FB084B002B02D055
:1001300000E000BF03E004F0E5FE00F05DF8FEE73C
:10014000C0000000E4000000FC000000000000000F
:1001500010B5064C2378002B07D1054B002B02D09D
:10016000044800E000BF0123237010BD00280010E8
:1001700000000000B8920000084B10B5002B03D01F
:100180000749084800E000BF07480368002B00D17A
:1001900010BD064B002BFBD09847F9E7000000008C
:1001A00004280010B8920000002800100000000091
:1001B00010B501F01DFD6E220A4B3C201A700A4B4F
:1001C000163A1A7001F078FD042001F0B1FD0748DD
:1001D00002F01CFB0022064B1A80064B103A1A80D4
:1001E00010BDC046922700109627001030780000FE
:1001F0001234001094270010F0B587B0FFF7D8FF35
:100200000024002007F016FA06000F0003F086FD18
:100210000022424B06F0C8FB07F094F9404B39002E
:10022000E050300003F09CFC00223C4B06F0BCFB8D
:1002300007F088F93B4B3C4AE05039003B4B30001B
:1002400005F078FF07F04AFA394B04349C42D9D1C3
:10025000002401F05BFC00285CD0314AA3009958CF
:10026000304AB02598580B0205935B420493314BFA
:10027000AD011A004D434243AA1880320192020296
:1002800003922D4A4B434243D318803302930023F9
:1002900000930025029E019FF91789B2C91909141C
:1002A0000B0036336C2B16D8F3179BB29B191B141B
:1002B0001A002B32562A0ED82B22D31A45325A4313
:1002C0001E4B28B29B185B1837331A786B460021F7
:1002D000595E01F06FFF039B0135FF18059BF6186F
:1002E0006E2DD9D1049A009B944601330093039A52
:1002F000019B634494460193029B63440293009BD9
:10030000582BC6D1013C012C01DC6824FF3401F0DC
:1003100035FF9EE7012007B0F0BDC04600007040E9
:10032000C42D00101C2800105F40D42247DF913FED
:10033000A405000000C9FFFF00D4FFFF0401001066
:1003400010B5024801F0A2F810BDC046C02D001043
:1003500010B513000A000100014800F031F810BD8B
:100360005078000000B589B072B6124902A800F0BA
:1003700070F8029B0193013304D124220E490F48E7
:10038000FFF7E6FF059B039A96201A60019200F0A2
:100390006EFA029B0193013304D1242206490748D7
:1003A000FFF7D6FF039A069B96201A60019200F091
:1003B0005EFADEE73823020081780000D078000082
:1003C0000FB4012010B504F087FDFFFF036870B57E
:1003D00004000D00013304D1242206490648FFF72A
:1003E000B7FF6368002D01D0E26800E02269136066
:1003F00070BDC04681780000D078000070B50D0057
:100400000400160000F04EFB6B1C07D000212000FA
:1004100000F070FB3100200000F066FB70BD10B5ED
:100420000122FFF7EBFF10BD70B50D0004001600B0
:1004300000F038FB6B1C0BD031002000FFF7C6FF2B
:100440000121200000F056FB0021200000F04CFBB1
:1004500070BD10B50022FFF7E7FF10BD10B5040016
:10046000034B083303601C3000F01EFC200010BD5D
:10047000E878000010B50400FFF7F0FF200000F05E
:10048000C3FA200010BDFFFF70B5050004000E4B3D
:100490000E00083308C528001822002104F062FD70
:1004A000002320003100E36123626363A363E364FC
:1004B000064A23001C3000F095FB28003100FFF7AE
:1004C000AEFF200070BDC046E87800002B0500009C
:1004D00003000A0010B51C300121002A04D01A6262
:1004E00000225A630132110000F0F2FB10BD03003C
:1004F00010B50A001C30002903D000229963DA6489
:100500000132022100F0E4FB10BD436910B5010087
:10051000002B04D10368002B06D0984704E0006844
:10052000002801D00431984710BD10B5012903D02F
:10053000022904D1383000E02030FFF7E6FF10BD7B
:1005400010B50400431C12D00B685A1C0CD09C42FE
:1005500008D12000896800F0E1FB0021200000F0B4
:10056000F9FB04E00C31EFE70148FFF729FF10BD6C
:10057000F878000010B5030088420AD00B00421C36
:1005800007D003004A1C04D00348FFF719FF0123DA
:100590005B42180010BDC046097900000B685A1C68
:1005A00005D0834201D1486802E00C31F6E718001B
:1005B0007047FFFF10B50400431C07D0FFF7EEFFA4
:1005C0000400431C02D10248FFF7FAFE200010BDD0
:1005D0001A79000010B5012004F07EFC10B5002847
:1005E00001D0FFF7BFFEFEE7704710B5040000F032
:1005F0000BFA200010BDFFFF73B504000E48002564
:10060000083020600820E0600C48261D60610698D4
:100610006560257225610090300000F0D3FC2B004E
:1006200030002269E16800F04DFD3000616900F0A2
:100630007FFD200076BDC0465879000040420F0083
:1006400070B5094D04002B6883420BD0061D02696A
:10065000C1680023300000F035FD6169300000F012
:1006600067FD2C6070BDC0466833001070B50D008A
:100670000400FFF7E5FF2900201D00F09DFD70BD7F
:1006800010B5040043684269991800F0BFF8E36AA6
:10069000002B04D1A369002B07D0984705E0A0697F
:1006A000002802D021001C31984710BD10B504006D
:1006B00000F0B4F80023A361E36210BD10B504009C
:1006C000044B08330360FFF7F1FF200000F0ACF8A3
:1006D000200010BD6C79000010B50400FFF7EEFF9C
:1006E000200000F091F9200010BD70B50D0004004D
:1006F00000F094F86561206900F068F8291820007E
:1007000000F084F870BD70B504000D0003681B682C
:10071000984763681D6070BD036870B5DB680400AE
:10072000984763685A682368002A02D19B689847F3
:1007300013E05B681568984763682D1A5A68002DA6
:1007400007DC916859601B68002BEAD05068984715
:10075000E7E7236810681B69984770BD70B50D0006
:1007600072B64B60002346680A607468002C05D09E
:100770002168511A02D42300A468F7E7002B05D1A1
:10078000036875601B691000984700E09D60AC60CD
:1007900062B670BD10B572B6426853688B420CD118
:1007A0009B6853600268002B02D1936898470BE066
:1007B00012691868904707E01300002B04D09A686C
:1007C0009142F9D18A689A6062B610BD10B503688B
:1007D0005B68984710BD10B503689B68984710BDCB
:1007E000084B10B508330360002343608360C36087
:1007F000040000F025F804492061FFF784FF200081
:1008000010BDC04680790000D707000010B50A006F
:100810000300011D0069FFF7A1FF10BD10B5011D08
:100820000069FFF7B7FF10BD10B50400034B083394
:100830000360FFF7F3FF200010BDC0468079000081
:1008400000487047A879000010B50248FFF764FF20
:1008500010BDC046A879000070B5040000F0E8FCA7
:10086000050000F0E5FC401BA042FAD370BDFA235E
:1008700010B59B005843FFF7EFFF10BD70B50A4C51
:10088000A568A3682A00002B0AD180225E59520570
:100890009A1804331660C02BF7D180225205A2604B
:1008A00010308000815070BD00ED00E07FB58020E9
:1008B0003F494002CA6F8E240243CA6723220020A8
:1008C00020253C4B3C499A60223A0A603B49A400EF
:1008D0000A60186219593A4A114001910199A943D5
:1008E000C825019101992D022943195100903548DD
:1008F0000099814204D8C046009901310091F7E780
:100900000121002019645964586459645C6C2948B9
:100910000C42FBD08E218026C825890044582D0228
:1009200014400394039C34430394039C2C4344508D
:1009300023248460445822400292029CB4430294CF
:10094000029A2A4342500120DC681A4901220442DB
:10095000FAD00320086700204A67486710004A67FA
:100960005C6F144A01210442FAD08E209167800006
:100970001558154C2C4014501558144C2C4014503C
:1009800000209164D164D064D164DA6C0A42FCD056
:100990002321084A1161012259691142FCD0002229
:1009A0000B4B1A601A600B4B01321A607FBDC046B8
:1009B0000480044000800440F0400440F4400440BF
:1009C000FF250000C3090000FFFBFFFFFFFEFFFF44
:1009D000C0800440C880044070477047704770472B
:1009E0007047002310B5934203D21C585C50043367
:1009F000F9E710BD00231A008B4202D21A500433CB
:100A0000FAE770470020704710B504F0A1FA10BD56
:100A100010B50400431C04D11E2217491748FFF7E4
:100A200097FC174B1A68002A06D101321A60154A42
:100A30001549D36F0B43D3670122002C12D0134BFF
:100A40009C420FD0124B9C420CD0124B9C4209D0BE
:100A5000114B9C4206D0114B9C4203D0104BE11825
:100A60004A424A412000110000F058F90120A40434
:100A7000E40EA04010BDC046B0790000D57800005B
:100A8000743300100480044040000100281400006A
:100A90002C16000030180000341A0000381C00002A
:100AA000C4E1FFFF70B505000C0029604B1C11D09C
:100AB0000800FFF7ADFF2414074BA400E318EB6018
:100AC000064B6860E3182B61054BE3186B61054B1F
:100AD000E418AC6070BDC046002200A0802200A0D7
:100AE000002100A0002000A010B5006800F032F93D
:100AF00010BDFFFF036870B504000D00013304D181
:100B0000432209490948FFF723FC002D06D0012D97
:100B100009D1A268636811680B4303E0A2686168A9
:100B200013688B43136070BDB0790000D07800006B
:100B3000F7B501210D008540134C636A2B4221D08B
:100B4000124B8600F058019300281BD023682B42DB
:100B500018D163682B4206D0E3692B4203D00C4BBB
:100B60001B689847E5612369074F2B4209D03B6A10
:100B70002B4206D0064B019A1B68022190599847D8
:100B80003D626562F7BDC046004000A07C330010A6
:100B90007833001010B50020FFF7CAFF10BD10B564
:100BA0000120FFF7C5FF10BD10B50220FFF7C0FF01
:100BB00010BD10B50320FFF7BBFF10BD10B504201A
:100BC000FFF7B6FF10BD10B50520FFF7B1FF10BD50
:100BD00010B50620FFF7ACFF10BD10B50720FFF7DA
:100BE000A7FF10BDF7B505002748814202DD0120AF
:100BF000404248E02548264C0260002082001659F9
:100C00000096002E3BD11351224C2860E36F224FF7
:100C1000224E3B43E3671F248B0349120C401821EB
:100C2000A44604009B0F59435E346144A400A151C3
:100C300081210124890071589B000F00210081400F
:100C40000F4339008127BF00F151A02180260906FA
:100C50005B18B60199592700019161468F400199AF
:100C600040B2B94399510E4BD158FFF707FE1F22EE
:100C70002B68009813409C400A4B1C6003E0013035
:100C80000828BBD1B3E7FEBD131102007833001072
:100C90007C33001004800440800009000080044080
:100CA000FC79000000E100E000210368064A9B0097
:100CB00010B59950012281210068044C82408900BE
:100CC00063589343635010BD7C3300100080044090
:100CD00003680120984070B50F4C2368034200D18F
:100CE0006062C54326680C4B2E402660012909D15D
:100CF000002A03D05A68104358600CE05A68154027
:100D00005D6008E0002A03D01A691043186102E010
:100D10001A6915401D6170BD004000A070B5040047
:100D20000D00431C04D1152207490848FFF710FBAA
:100D3000074BE405E40DE418072322681D409A439D
:100D40001543256070BDC0461C7A0000D5780000B0
:100D50000040044070B504000D00431C05D11D2265
:100D60000F491048FFF7F4FA06E081231B0198426F
:100D700014D00D4B984211D00C4BE405E40DE4184F
:100D80002368042D04D18022D2001343236005E0A0
:100D90001822ED00934315401D43256070BDC046E9
:100DA0001C7A0000D5780000140A000000400440BE
:100DB00070B50C1C05000021201C04F0F9FA002875
:100DC00009D1FE21201C890504F006FB002803D070
:100DD000FE24A40500E0002480232D689B00E85831
:100DE00005F06AF9211C04F063FE04F009FB81237D
:100DF0009B00E85070BD8023F7B5812704689B00F5
:100E0000E258BF00E059E15001920D0005F054F99D
:100E1000061C019805F050F9011C301C04F07EFC02
:100E2000061C280005F000F9011C301C04F040FEEF
:100E300004F0E6FAE051F7BDF7B50F00060050499F
:100E40003800FFF7B7FBC3B20500FF2B02D14D48B6
:100E5000FFF7B6FA4C4B01211A78019310000840B5
:100E6000031E04D00A410B000A4200D081E0012495
:100E700021009940019A4548127873600A4301990C
:100E80000A70434A99008A5809333260C26F1100D0
:100E9000802212061143C1672000984003003D4A9A
:100EA00038005268364913433A4A5360FFF748FB0B
:100EB0003768394A3B68394913430C223B607B68E9
:100EC00013437B607A68364B13407B607B680193E9
:100ED000344B186804F0A6F8FE2301381B014001CA
:100EE0001840019B18437860E8B207281DD804F029
:100EF0008FF8040A1016040A1016A023DB00FC5019
:100F00000222294B10E0A123DB00FC500222274BD8
:100F10000AE0A223DB00FC500222254B04E0A323BD
:100F20000222DB00FC50234BFA508022C1235201E5
:100F30009B00FA500123C0225B4292001E49BB5025
:100F40000C32B950043ABB5080231C499B00F95025
:100F5000FB58053A9B08FF3ABB5004227B683000DF
:100F600093437B60FFF747FF30000021FFF720FF2E
:100F7000F7BD1348FFF724FA01235B4277E7C04629
:100F8000647A0000D07A00009C3300100480044092
:100F9000FC7A0000008004400100060040420F007F
:100FA0001FF0FFFF84270010040500000C0500005F
:100FB000140500001C05000001100000204E000078
:100FC000EA7A0000F0B5334E87B00091040031009A
:100FD000009801920293FFF7EDFA2F4D07002900C8
:100FE0000198FFF7E7FA2D4903900298FFF7E2FA1C
:100FF0002B4904900C98FFF7DDFA0399059038000F
:10100000FFF7B8FA059907000498FFF7B3FA010053
:101010003800FFF7AFFA2060431C04D14822214971
:101020002148FFF795F92368204A93420FD0204AC0
:10103000934219D180201F49C002CB6F1E4A03433F
:10104000CB6701211D4B1960536803310AE08020F2
:1010500018490001CB6F184A0343CB670121184B95
:10106000196053680B43536031000098FFF768FA2A
:1010700029000198FFF764FA08490298FFF760FA1F
:101080000C9B013303D006490C98FFF759FA07B0BF
:10109000F0BDC0464C7C0000047B0000407B00009B
:1010A000887C0000887B0000D17B000000000440A9
:1010B0000080054004800440008004409C8004407F
:1010C00094800440F8B50E000221140002681D004F
:1010D000536807008B435360331F0C2B06D9032C36
:1010E00004D9652210491148FFF732F98023E00145
:1010F0000340013E1E43A30734003968DB0F0A6832
:101100009B01120C12041C4314430D220C604B680B
:1011100093436A1E95410222AD001D434D604B680A
:1011200013434B60F8BDC046887B0000E57B0000A0
:10113000F7B5022405000E0002685368A34353600C
:101140001A4B1B6801932100019803F06BFF04F018
:101150006BFF071C300004F067FF011C381C04F013
:10116000DDFAFC21890504F063F906F063FA02F068
:101170003DFD06F0E7F9FF280FDC2B680C4A1C61E7
:10118000196801380A4002211A601A6800021043E7
:1011900018605A680A435A6007E0802302345B00F3
:1011A0009C42D0D10348FFF70BF9F7BD842700100C
:1011B000FF0000FF237C000002220368D868104271
:1011C000FCD004229960D9681142FCD0986870471D
:1011D000104B70B51A68002A1AD1012580210E4AD9
:1011E0001D60D36FC9000B43D3670C4B0C4C1868C0
:1011F00002230C49636003F015FF0138E0600A49DF
:1012000065601320FFF73AFB8022084B12031A6037
:1012100070BDC046A0330010048004408427001035
:101220000080014040420F004908000000E100E05A
:10123000044B10B51B68002B01D1FFF7C9FF024B0F
:10124000986810BDA0330010008001400121034BBD
:1012500098615A690A435A617047C046008001404C
:101260000121024A53698B4353617047008001405A
:101270000122014B1A60704700800140704770479F
:101280007047FFFFFF22014B1A707047A433001014
:1012900010B501F0CDFB10BD30B50023FF250A4C81
:1012A0000A4AE15C002902D0D15C013104E0D05C43
:1012B000002804D0FF2801D1D15400E0D5540133D7
:1012C000072BEED130BDC046DC480010A63300101D
:1012D000034B185C013843425841C0B27047C046C6
:1012E000A6330010002210B51D4B19781A701D4A44
:1012F0005078002801D001201870D078002803D041
:1013000002241878204318701078002803D0042491
:101310001878204318709078002803D00824187893
:10132000204318701079002803D010241878204327
:1013300018705079002803D02024187820431870A2
:101340009279002A03D040201A7802431A701B7841
:10135000054A180008409943044B1070197010BDDD
:10136000A5330010DC480010AE330010AD33001080
:10137000014B18797047C046DC4800100023094A29
:101380001380094A1370094A1370094A1370012225
:10139000084B52421A80084A084B1A600922084B2F
:1013A0001A707047B6330010B5330010BC3300100C
:1013B000AF330010B233001090860000B833001035
:1013C000B433001010B50248FFF7D8FF10BDC04677
:1013D000B033001037B572B600210422244B8025AB
:1013E00059601961234BED001A608E22224B920046
:1013F0009C582C4380259C509C586D002C439C503D
:1014000001225A671400596719004B6F1A4D0122C7
:101410002340FAD114002B676A676B674B6F164A3B
:101420002340FBD18E245364516CA4009360136756
:10143000536015591149294080250191019929438B
:10144000C825019101992D0229431151A02284211F
:101450001206890153500A4953500A4953500A4B06
:101460009860001C01688D464068804737BDC046C3
:10147000004000A010E000E000800440FF250000D4
:10148000042100000821000000ED00E07047FFFF8C
:1014900010B501240020FC22154BD2001C70154B06
:1014A00001001880144B1A8000F06AFC200001F043
:1014B00085F8124A124B12689A4203D0114801F083
:1014C00035F903E0104B1868FFF784FFFFF750FF72
:1014D00000280CD1FFF706FFFFF74AFF0028F5D0E0
:1014E000FFF746FF002802D0FFF7FCFEF8E710BD2B
:1014F00090270010203400108827001004FE0300FD
:101500001EAB07B0AE8800000CFE0300F8B5002447
:10151000012001F053F8454BFC271C8000F012FC21
:10152000434D444B44482B8000F0E8FF0123434ED9
:1015300030213370424BFF001C70424B60201C7006
:101540002F8001F0F9F8404801F0E4F838216020DC
:1015500001F0F2F83D4801F0DDF84021602001F093
:10156000EBF83B4801F0D6F84821602001F0E4F8A0
:10157000384801F0CFF86021282001F0DDF8364826
:1015800001F0C8F8013C35482C8001F0C3F834481C
:101590002F8001F0BFF802232C80337002F012F983
:1015A000043485B2FFF79EFE7821682001F0C4F86C
:1015B0000A21200001F010F902F004F9FA239B003F
:1015C000EB18984203D902F0FDF8013C85B201F016
:1015D000A7FA002808D001F0A3FA041E02D0FFF7F2
:1015E00081FEF8E7FFF754FF01F08EFA002807D0DC
:1015F00001F08AFA002802D0FFF774FEF8E7040031
:1016000001F088FA002802D1002CCBD106E001F0CD
:1016100081FA002802D0FFF765FEF8E70123337056
:1016200000F090FB002000F0C9FFF8BD203400104E
:101630008827001000F8FFFF2C830000902700107F
:10164000912700108A270010C3880000C888000076
:10165000CD880000D2880000D7880000DD88000017
:10166000E1880000F0B5714C1E0023888BB00500A6
:101670000F0004920993002E06D000203223009020
:101680001A00010000F070FBFC23DB002380002E19
:1016900016D000F08BFF0400012000F08FFF01F056
:1016A00055F9390002001439681EC9B2C0B20A23C4
:1016B00001F096F85E4801F02DF8200000F07EFF62
:1016C000049B0B2B02DC5B4A584B1A803BB2039302
:1016D0000123594C009328B22200039900F05AFBD1
:1016E000049B172B02DC534B504A1380ABB21D00F6
:1016F000012608352DB205932200330003992800F6
:10170000009600F047FBBBB20693043B1BB2079365
:101710000096330022000799280000F03BFB049B51
:101720002F2B01DD454B00E0424B0124059D424E2D
:101730003E4A10352DB21380039923003200280051
:10174000009400F027FB2300320007992800009442
:1017500000F020FB069B0094083B1BB2089332006C
:1017600023000899280000F015FB049B5F2B02DC86
:10177000304A2E4B1A800124059D2F4F18352DB26B
:1017800023003A0003992800009400F003FB230093
:101790003A0007992800009400F0FCFA23003A0070
:1017A00008992800009400F0F5FA069E23000C3EEC
:1017B00036B200943A003100280000F0EBFA049BA6
:1017C0009F2B02DC1B4A194B1A800125059C1A4FDE
:1017D000203424B22B003A0003992000009500F039
:1017E000D9FA2B003A0007992000009500F0D2FAB0
:1017F0002B003A0008992000009500F0CBFA2B004E
:101800003A0031002000009500F0C4FA06992B0040
:1018100010393A0009B20095200000F0BBFA6A4680
:10182000024B928C1A800BB0F0BDC0468827001086
:10183000708900008A5200002D8F000000F8FFFF21
:10184000F7B500250126012000F0B8FE8A4B2020C4
:101850001D7001F04BF801F079F804F02DFC874B76
:10186000041C1D703500864B1B78002B00D101E154
:10187000002D00D1FEE0012D00D095E0814D002E1D
:1018800036D0012700F05EFA7F42102120202F8001
:1018900000F076FA7C4800F03DFF9921282000F006
:1018A0006FFA7A4800F036FFFC237948DB002B8082
:1018B00000F030FF77482F8000F02CFFFC235821E8
:1018C000DB0000202B8000F05BFA734800F02EFF55
:1018D000724F380000F02AFF380000F027FF380070
:1018E00000F024FF380000F021FF6D4800F01EFFDB
:1018F0009921302000F044FA01F028F8252802DC74
:1019000001235B4200E0674B2B800223664A009371
:101910003021013BA42000F03DFA3621182000F0D0
:101920002FFA624800F0F6FE4221182000F028FA53
:1019300001F00CF8282801DD5D4800E05D48FC2737
:1019400000F0E8FE0223FF005B4A2F806021009335
:10195000A420013B00F01EFA6621182000F010FAC6
:10196000564800F0D7FE7221182000F009FA00F066
:10197000EDFF252802DD4B4B2B8000E02F8000F08F
:10198000E5FF0A2100F028FF4D4800F0C3FEFC23CC
:10199000DB002B8000F0DAFF0023020076217020AC
:1019A000FFF760FE02255EE7022D00D060E7FFF73B
:1019B00099FC01F0A9F8002808D001F0A5F800284A
:1019C00001D105004FE7FFF78DFCF6E701F0B4F811
:1019D00000282CD08421201CC90503F007FD002815
:1019E00007D03849201C03F0E3FC002808D0364912
:1019F00009E08421201CC90503F0F8FC002801D06F
:101A0000324900E03249201C03F012FD3149041C28
:101A100003F0E2FC002802D0FF2000F067FF2E490F
:101A2000201C03F0D9FC00281BD02B4C19E001F03E
:101A30007DF8002800D116E72449201C04F04CF959
:101A40008421C905041C03F0BDFC002802D020201D
:101A500000F04CFF0021201C03F0AAFC002800D05D
:101A60000024201C04F0BEFA00B200F02DFF002676
:101A70000125F8E6F7BDC04691270010C0330010DD
:101A8000BE33001088270010EC880000A7880000F3
:101A900000890000028900000D89000028890000EB
:101AA0004389000000F8FFFFE98E00006288000013
:101AB0005E890000688900000B8F000073890000B8
:101AC0007089000000000442CDCC4C3C0000A03FD7
:101AD000000020400000504200007F43012210B56A
:101AE000084B00201A7000F069FD074800F006FD61
:101AF00001F058FE01F06EFE00F09AFF01F068FE62
:101B000010BDC046BE330010C47C0000014B1878E5
:101B10007047C046BE330010F7B50024FC272500EF
:101B20005826FF00292D48D801F04CFE234B1A6897
:101B30009042F7D91E301860012D0BD0002D02D035
:101B4000022D22D035E01E4B28001D8000F008F940
:101B500001252EE0FC21E2B2C900002000F082FE47
:101B6000184B194A18806E2351781078490840089C
:101B70001C34181A711A00952B00A4B200F00AF94F
:101B8000FE2C16D90024022513E00E4B0E4A1F80AE
:101B90006E23107851784008181A49086D3B00935D
:101BA000711A00F0F7F83F34084BA4B29C4200D9F8
:101BB000FF25FFF7DDFB0028B4D0F7BDC06B001098
:101BC0002034001088270010DF890000FF03000088
:101BD00010B5202000F08AFE1022034B1A80034B20
:101BE000EF321A7010BDC04644470010BD330010DC
:101BF00070B5FFF773FF32220124FF25234B1A70C3
:101C0000234B1C60234B1D70FFF7E2FFFFF736FBF1
:101C100028000025FFF733FBFFF73AFBFFF73CFBFB
:101C2000FFF72EFB00F0A7F8FFF776FF200000F08B
:101C3000C5FC194B1D8000F085F8184800F05EFCCB
:101C4000FFF764FCFFF7FCFD00F064FE280000F0E5
:101C5000B5FC134B13481C70134B1C70134B1C70BA
:101C6000134B1C7000F04AFC00F02AFEFFF70AFB41
:101C70000520FFF72DFBA84203D10E4B1B78AB428A
:101C800002D1002000F020FE70BDC046BF3300101E
:101C9000C4330010BD330010203400102C8300002A
:101CA00091270010C87F00008A270010902700109D
:101CB0008C270010A433001010B501000400FA2096
:101CC000800003F039FA064B14211870200003F04D
:101CD000A9F9C0B2002800D10130024B187010BD24
:101CE000BF3300104147001010B5024800F018FC47
:101CF00010BDC046C13300100123812213B5074C2B
:101D00005B4200935201064B06492000FEF774FC2B
:101D1000054A06492000FEF775FE13BDC8330010C2
:101D2000180C00002412000000010010E90500005A
:101D3000031C042800D90423014A13707047C046CD
:101D4000E433001010B5002000F0CEFF0023024A5B
:101D50001380024A138010BD183400101E34001086
:101D600010B500F0C1FF10BD13B504AC2488009479
:101D700001F06FF913BD10B501F018F810BDFFFFA9
:101D8000024B1880024B19807047C046183400106F
:101D90001E340010F0B58FB00B9114A909780A9089
:101DA0000891117805915178023209910092012B26
:101DB00076D1059B0733DB100C936B461B8D079385
:101DC0000493002303936B460C21595E059B8B42C1
:101DD00000DCF0E00723CA171A405218D21053B2A1
:101DE0000A93764B0B4004D50822013B5242134321
:101DF000013380221BB21A416B469B8D0D920693D4
:101E00000293002301936B4604229B5E099A93423E
:101E10003EDA0C9A0A995343009A5218D35C0D9AF1
:101E20001A422DD0089B664C012B09D1069B0199C3
:101E300003985918079B2288181809B200B21DE0B0
:101E40006B461027DF5F6B4608269E5F22883100B5
:101E5000380001F0E3F8049B31005D1C2DB22288AC
:101E6000280001F0DBF8029B22885E1C36B23100AC
:101E7000380001F0D3F831002800228801F0CEF8B4
:101E8000019B01330193029B02339BB20293BAE799
:101E9000039B01330393049B02339BB2049392E7A9
:101EA000042B00D087E00023099A934200DB82E0F4
:101EB0009BB202936B469B8D00250793029B079A6A
:101EC0005B00D3189BB21AB201331BB204936B466A
:101ED0001B8D039206930193059BAB4267DD009B2C
:101EE000384A1B7812681B115B009E5A089B022B14
:101EF00019D1069B6C001C19A4B227B20134320020
:101F00000399380024B201F089F8320003992000C7
:101F100001F084F832000499200001F07FF83200CB
:101F20000499380007E0029B079A99186B46320023
:101F30000420185E09B201F071F80F22009B1B7893
:101F40001340204A5B0012689E5A089B022B1AD14C
:101F5000069B6C001C19A4B2A71C3FB203343200CC
:101F60000399380024B201F059F832000399200097
:101F700001F054F832000499200001F04FF83200CB
:101F80000499380007E0029B079A99183200019BD8
:101F900009B2581C00B201F041F8009B0235013330
:101FA0000093019B2DB202339BB2019394E7029BF5
:101FB00001331BB278E70FB0F0BDC04607000080C8
:101FC000882700100C340010F0B513004D4A8DB076
:101FD0000B9010680491427811000592F72208399D
:101FE0000A40511E8A410599C9105218099209994F
:101FF00002784A43511C4B431A0082181279053368
:1020000052B20A920022C31803926A46127B0A99BE
:1020100052B291426BDD09991A78022903D001333B
:10202000089393B204E0991C5B7808911B02134358
:1020300000936B469B89002506936B469B8D079307
:10204000069B079A5B00D3189BB21AB201331BB2EE
:1020500001920293059BAB4244DD0122009B134297
:102060000ED0294B1B78022B07D1049B6C00E4187F
:10207000264EA4B227B2328811E0244B1A8822E0FF
:10208000234E244B32881B88934225D01E4B1B784D
:10209000022B18D1049B6C00E418A4B227B23900BB
:1020A0000198013400F0BAFF24B232883900029856
:1020B00000F0B4FF32882100019800F0AFFF3288B1
:1020C0002100029806E0049B0798E918069B09B2D4
:1020D000181800B200F0A2FF009B01355B080093C6
:1020E0006DB2B7E7039B01330393089B8DE7002094
:1020F000094B18560A9BC018034B1B7858430DB068
:10210000F0BDC0461434001090270010882700103E
:1021100020340010942700109127001010B5114BA7
:102120001888114BC2B21B78012B03D1FF21002864
:1021300008D00CE0022B05D101331A4011009300A6
:10214000194302E00F231A4011000B011943074BFA
:10215000074A186802F006FF0023064A1380064A61
:10216000138010BD123400108B270010E0330010D4
:102170001F130000183400101E340010064B10B559
:102180001968064B186800F08BFF054B1B78002B75
:1021900001D1FFF7C3FF10BD0C340010E033001075
:1021A0000834001010B5024800F046FB10BDC046D0
:1021B000CA870000124B70B51B8893421ED0114B8A
:1021C00086B21C78B44219D90F4B89B21B788B4266
:1021D00014D913000F2564104C430C4A40101168A9
:1021E000201880B208182B400278F10702D5AA43C4
:1021F0001A4302E015401A012A43027070BDC0461E
:10220000942700109227001096270010E03300104A
:10221000F0B51300274A87B00490106805914778FD
:10222000F722390008390A40511E8A41F910521824
:102230000292029902784A43511C4B431A008218B9
:102240001279053352B203926A46158AC318049A6A
:102250000399AA1A52B2914224DD029A1C78022AEA
:1022600003D001330193A4B204E09A1C5B7801927D
:102270001B021C430026B74210DB059B28B2F11855
:1022800001231C4201D00C4B00E00C4B1A7809B220
:102290000136FFF78FFF640876B2ECE70135ADB287
:1022A000019BD4E70020064B1856039BC01807B0CB
:1022B000F0BDC046143400108E27001012340010F8
:1022C0009127001010B5114B84B21B78A3421CD982
:1022D0000F4A89B212788A4217D95B104B434010DB
:1022E00018180C4B80B219680F22081801780A4B95
:1022F000E40704D591431C780B00234304E01B88BA
:102300000A401B011A43D3B2037010BD922700107C
:1023100096270010E03300108E27001070B50F4B89
:1023200015001B788AB20600934202D8AAB29342E3
:1023300012D90B4B1A78B3B29A420DD9A94202DDD9
:102340000B0029001D000C00A54205DB21B2300066
:10235000FFF7B8FF0134F7E770BDC04696270010BD
:1023600092270010F8B58218CB1805000C0012B2A5
:102370001BB2002801DA002A2DDB174909788D42AB
:1023800001DB914227DD002C01DA002B23DB13490E
:1023900009788C4201DB99421DDD954202DC110077
:1023A0002A000D009C4202DC190023000C00161CC0
:1023B000002A00DA002636B2191C002B00DA0021B0
:1023C0000FB2AE4207DA3000220039000136FFF7C3
:1023D000A5FF36B2F5E7F8BD92270010962700104A
:1023E000F0B587B0002878D03D4B1B78984201DBD0
:1023F000581E00B23B4A1478042C07D13A4A11788F
:102400004143CA0F5118491089B20AE0022C64D125
:102410000321354A12784243D51729408A18921071
:1024200091B2324A15880195314D2D8815802E4A7A
:1024300000282DDD1278181AD5086C430294002468
:1024400025000490049884421BDA2800491B89B2B5
:1024500003916F46461BFE82FE8A0399B446029E94
:10246000411889B2B44508DA461CB446214E715C65
:1024700031546146F982F88AEBE70134A4B20500D1
:10248000E0E71D491BB20020095E12B200201EE0E9
:1024900012789BB25443174FE41085B20294039311
:1024A000039BAB420FD90C00661A029BB6B29E4248
:1024B00005DA661CB6B2BB5D3B553400F4E7013566
:1024C000ADB22100ECE700210300080012B2FFF7D3
:1024D00049FF6A46054B92881A8007B0F0BDC04696
:1024E000962700108B270010922700108E270010CF
:1024F00012340010223400101E340010054B064A1E
:1025000018600378013313704378044A0133137061
:102510007047C046143400101134001010340010FD
:102520000E4A0F4B10B504001A60FFF73BFE012264
:102530000C4B0D481A700D4BDB321A800C4B2C3AA9
:102540001A80FFF7DBFF11220A4B20001A800022BD
:10255000094B1A80094B04321A7010BD2234001046
:10256000E03300101D340010C47C0000E63300107E
:102570001A3400109427001012340010E4330010B5
:1025800010B5084B09B21B6800B29B78D21A064BF3
:10259000D2B21B78002B02D0FFF716FD01E0FFF747
:1025A00037FE10BD143400101D340010024B187893
:1025B000431E9841C0B270471D34001009490A4AB1
:1025C0000A4B002805D001200870DC211180B022C0
:1025D00005E00870064909781180064A12781A80C9
:1025E0007047C0461D340010E63300101A34001046
:1025F000922700109627001010B50B4C0B490023B2
:10260000E25E0B4B09881B685B785800091A094881
:10261000007840B28A4203DDC018FFF7E1FE02E015
:10262000C3189B18238010BD1E3400101A340010EC
:10263000143400108A27001070B52B4B04001A6860
:10264000D378002B03D0602801D9203CE4B20E2CB3
:1026500021D8200002F0DCFC461F1F1F1F1F1F1F78
:102660000E1F081F1F1B46000022204B1A80FFF779
:10267000C3FF37E01D4910780B882022181A1C4B25
:1026800080B208801978C0B2FFF77AFF2AE00022F2
:10269000164B1A8026E0154D12780023E85E154B84
:1026A0001B889B1A98420BDB00232B80124B1B7854
:1026B000002B17D0FFF7A0FF0D4B2878197802E008
:1026C0000B4BC0B219782200FFF75AFF202C06D11D
:1026D0000A4B1B785BB2002B01D0401001302B88D5
:1026E0001818288070BDC04614340010183400102B
:1026F0001E340010E63300108C27001091270010C4
:1027000010B504002078002803D00134FFF794FFAF
:10271000F8E710BD10B5FFF7F3FF10BD10B50D20A1
:10272000FFF78AFF0A20FFF787FF10BD10B5FFF7FC
:10273000E7FFFFF7F3FF10BD024B1880024B198033
:102740007047C046183400101E3400100023F0B546
:10275000050089B00E00984203D13020FFF76CFFCE
:102760001CE05C1C28006B4431001F0002F0E0FC00
:1027700028003970310002F055FC2300051EF0D10D
:102780006B46013C1B5D18003730C0B2092B01D8E5
:102790003033D8B2FFF750FF002CF1D109B0F0BDB3
:1027A00010B5041E03DA2D20FFF746FF64420A210C
:1027B0002000FFF7CBFF10BD10B5002903D1C0B238
:1027C000FFF73AFF07E00A2902D1FFF7E9FF02E02D
:1027D000C9B2FFF7BBFF10BD10B5FFF7EDFF10BD8D
:1027E00010B5044C20800448018019001000FFF748
:1027F000E3FF10BD183400101E34001010B502485D
:10280000FEF744FE10BDC0461C3400100023044AED
:10281000C15AD1520233202BFAD1024B1A607047B1
:10282000E83300100C34001089104901D210C01098
:102830000A43C0021043704770B504000025074EDC
:10284000A27861782078FFF7EFFF6B000135F05236
:102850000334102DF4D1024B1E6070BDE83300101C
:102860000C34001070B51F24050025400C40641B7B
:1028700023B253431B12EB183F2544114E112C4039
:10288000C00A3540C9122D1B091A55434A4312127A
:102890002D1280181BB26419021C002800DA0022D5
:1028A00012B2D202181C002B00DA00201043231CA5
:1028B000002C00DA00231BB25B01184380B270BD0C
:1028C00010B500F0E3FE10BD031C002800DA002361
:1028D000044A1BB21288934200DD13B2024A1380ED
:1028E0007047C046982700104447001010B50028D4
:1028F00003DBFF2802DDFF2000E00020034B1880EF
:10290000034B0020185EFFF7DFFF10BD9827001073
:1029100044470010054B10B51888202801D9103005
:1029200000E0083000B2FFF7CFFF10BD44470010B1
:10293000054B10B51888202801D9203800E0083848
:1029400000B2FFF7C1FF10BD44470010014B1888CB
:102950007047C0464447001010B50248FEF796FD88
:1029600010BDC046424700100122014B1A7170474A
:10297000DC4800100022014B1A717047DC4800103F
:102980000122014B5A717047DC4800100022014BB4
:102990005A717047DC4800100122014B9A71704750
:1029A000DC4800100022014B9A717047DC4800108F
:1029B0000122014B5A707047DC4800100022014B85
:1029C0005A707047DC4800100122014BDA707047E2
:1029D000DC4800100022014BDA707047DC48001020
:1029E0000022014B9A707047DC4800100022014B16
:1029F0001A707047DC48001010B5054B9A79002A10
:102A000002D0FFF787FF01E001229A7010BDC04697
:102A1000DC48001010B5054B9A79002A02D0FFF768
:102A200087FF01E001221A7010BDC046DC4800108B
:102A300010B5204C20492000FDF759FD20001F490A
:102A4000FDF746FD1E4C1F492000FDF750FD2000FC
:102A50001D49FDF73DFD1D4C1D492000FDF747FDBB
:102A600020001C49FDF734FD1B4C1C492000FDF7DC
:102A70003EFD20001A49FDF72BFD1A4C1A49200093
:102A8000FDF735FD20001949FDF722FD184C1949C5
:102A90002000FDF72CFD20001749FDF719FD174C0C
:102AA00017492000FDF723FD16492000FDF710FD12
:102AB00010BDC046E44800107529000069290000D7
:102AC000344900108D29000081290000484700107A
:102AD000A5290000992900008C480010BD2900009C
:102AE000B129000098470010D5290000C92900002D
:102AF000EC470010ED290000152A00003C480010AA
:102B0000E1290000F9290000014B18797047C046FF
:102B1000DC480010014B58797047C046DC48001073
:102B2000014B98797047C046DC480010014B18787B
:102B30007047C046DC480010014B98787047C0468B
:102B4000DC48001070B52648FFF7EAFC254E264900
:102B50003000FDF799FC254D254C2A00210030005E
:102B6000FDF750FF234E24493000FDF78DFC2A006D
:102B700021003000FDF746FF204E21493000FDF7CF
:102B800083FC2A0021003000FDF73CFF1D4E1E494A
:102B90003000FDF779FC2A0021003000FDF732FFFC
:102BA0001A4E1B493000FDF76FFC2A00210030004F
:102BB000FDF728FF174E18493000FDF765FC2A0085
:102BC00021003000FDF71EFF144E15493000FDF7BF
:102BD0005BFC2A0030002100FDF714FF70BDC046E9
:102BE000E8470010E44800108412010000010010C2
:102BF0005D040000344900107008010048470010CF
:102C0000881401008C480010941A010098470010A5
:102C10006C060100EC470010C43201003C48001073
:102C20007C0E0100074B1A8882420AD01880A0232C
:102C3000054A06491B0699500549C0005850002115
:102C40009950704784490010882000000700F8FF61
:102C50008821000070B58A23A024042224069B0149
:102C6000E2508023064D5B046351FFF7DBFF8023B6
:102C7000044A5B01A350C046C046635170BDC046C4
:102C8000042200008422000070B58823A0240422BE
:102C900024069B01E2508023064D5B046351FFF73D
:102CA000C1FF8023044A5B01A350C046C046635164
:102CB00070BDC046042200008422000010B5074CFD
:102CC00007492000FEF7B8F820000521FEF793F829
:102CD00004492000FEF76CF810BDC046884900107A
:102CE000FC0402009A99993E10B504002020FFF7D9
:102CF000B1FF0020FFF7C8FF2120FFF7ABFF002046
:102D0000FFF7C2FF2220FFF7A5FF2000FFF78AFF91
:102D1000A023882204211B06920199508021084A91
:102D200049049950802107484901074C995019518D
:102D3000C046C046013899500028F8D110BDC046A1
:102D400004220000409700008422000010B52020DB
:102D5000FFF780FF0020FFF797FF2120FFF77AFFA2
:102D60000020FFF791FF2220FFF774FF0020FFF7FC
:102D700059FFA023882204211B069201995080212B
:102D8000074A49049950802106484901064C995048
:102D90001951C046C046013899500028F8D110BDDD
:102DA00004220000409700008422000070B5A02596
:102DB0000124784E2D06FFF781FFAC510A20FDF764
:102DC00056FD754B0A20EC50FDF751FDAC510A2021
:102DD000FDF74DFD2000FFF73DFF8E204000FFF77F
:102DE00053FF0220FFF736FF80204000FFF74CFF23
:102DF0000320FFF72FFF6948FFF746FF0820FFF782
:102E000029FF6748FFF740FF0C20FFF723FF002052
:102E1000FFF73AFF0F20FFF71DFF2000FFF734FFF9
:102E20002020FFF717FF0020FFF72EFF2120FFF7DC
:102E300011FF0020FFF728FF1020FFF70BFF0020F5
:102E4000FFF722FF1120FFF705FF80204001FFF769
:102E50001BFF0A20FDF70BFD3020FFF7FBFE0020D3
:102E6000FFF712FF3120FFF7F5FEDB20FFF70CFF25
:102E70003220FFF7EFFE0020FFF706FF3320FFF7B9
:102E8000E9FE0020FFF700FF3420FFF7E3FEDB2020
:102E9000FFF7FAFE3520FFF7DDFE0020FFF7F4FE16
:102EA0003620FFF7D7FEAF20FFF7EEFE3720FFF703
:102EB000D1FE0020FFF7E8FE3820FFF7CBFEDB2035
:102EC000FFF7E2FE3920FFF7C5FE0020FFF7DCFE2A
:102ED0000A20FDF7CCFCFF20FFF7BCFE0320FFF724
:102EE000D3FE5020FFF7B6FE2E48FFF7CDFE51204F
:102EF000FFF7B0FE2C48FFF7C7FE5220FFF7AAFEEF
:102F00002A4D0520FFF7C0FE5320FFF7A3FE28003F
:102F1000FFF7BAFE5420FFF79DFE2548FFF7B4FEE9
:102F20005520FFF797FE234C0320FFF7ADFE5620F8
:102F3000FFF790FE2000FFF7A7FE5720FFF78AFE5D
:102F40001D48FFF7A1FE5820FFF784FE2800FFF779
:102F50009BFE5920FFF77EFE2000FFF795FEB02074
:102F6000FFF778FE1548FFF78FFEFF20FFF772FE90
:102F70000020FFF789FE0720FFF76CFE1048FFF7DF
:102F800083FEC820FDF773FC2220FFF763FEFFF7E6
:102F9000DDFE70BD0422000084220000301000001D
:102FA0000808000003020000090A000021100000C8
:102FB00002060000030700000705000001250000CD
:102FC00017100000F8B5050017000C001E00ADB288
:102FD0003720FFF73FFE2800FFF756FE3620FFF7A9
:102FE00039FEB8B2FFF750FEA4B23920FFF732FE27
:102FF0002000FFF749FE3820FFF72CFEB0B2FFF7A4
:1030000043FE2020FFF726FE2800FFF73DFE21208B
:10301000FFF720FE2000FFF737FEF8BD70B584B241
:103020001600DB2C14D88DB2AF2D11D82020FFF75D
:1030300011FE2800FFF728FE2120FFF70BFE2000DD
:10304000FFF722FE2220FFF705FE3000FFF71CFEEF
:1030500070BDF7B51C0008AB1B8807000E001500FB
:103060000193824201DC451C2DB2B44201DC741C88
:1030700024B26B1E621EDBB2D2B2F9B2F0B2FFF71D
:10308000A1FF2220FFF7E6FDED1BA41B6C43002CE3
:1030900004D00198FFF7F8FD013CF8E7F7BDFFFF0A
:1030A000F0B5DFB0059020200491FFF7D3FD00209C
:1030B000FFF7EAFD2120FFF7CDFD0020FFF7E4FD3B
:1030C0002220FFF7C7FDA0248823042224069B01A9
:1030D000E2508023B44E5B048025A35100236D0190
:1030E000A5510393039B00225910059B59180F23E8
:1030F0009C460B78049F18114000C05B06AFD0536C
:10310000674610003B40049F5B00DB5BB03006AFBE
:1031100002323B523731B02AEBD10223DB19019343
:103120000293029BA14F023B1888FFF77BFDE551FC
:10313000C046C046A551E551C046C046029BA551B8
:103140001888FFF76FFDE551C046C046A551E5510F
:10315000C046C046029BA5515888FFF763FDE55164
:10316000C046C046A551E551C046C046029BA55188
:103170009888FFF757FDE551C046C046A551E55177
:10318000C046C046029BA551D888FFF74BFDE551CC
:10319000C046C046A551E551C046C046029BA55158
:1031A0001889FFF73FFDE551C046C046A551E551DE
:1031B000C046C046029BA5515889FFF733FDE55133
:1031C000C046C046A551E551C046C046029BA55128
:1031D0009889FFF727FDE551C046C046A551E55146
:1031E000C046C046029BA55110330293B22306AAE3
:1031F0009B18029A934200D093E7019B023B1888E8
:10320000FFF710FDE551C046C046A551E551C04647
:10321000C046019BA5511888FFF704FDE551C04643
:10322000C046A551E551C046C046019BA5515888EE
:10323000FFF7F8FCE551C046C046A551E551C04630
:10324000C046019BA5519888FFF7ECFCE551C046AC
:10325000C046A551E551C046C046019BA551D8883E
:10326000FFF7E0FCE551C046C046A551E551C04618
:10327000C046019BA5511889FFF7D4FCE551C04613
:10328000C046A551E551C046C046019BA55158898D
:10329000FFF7C8FCE551C046C046A551E551C04600
:1032A000C046019BA5519889FFF7BCFCE551C0467B
:1032B000C046A551E551C046C046019BA5511033FB
:1032C0000193B22306AA9B18019A934200D094E777
:1032D00032AB01930293029B1888FFF7A3FCE551E0
:1032E000C046C046A551E551C046C046029BA55107
:1032F0005888FFF797FCE551C046C046A551E551F7
:10330000C046C046029BA5519888FFF78BFCE5514B
:10331000C046C046A551E551C046C046029BA551D6
:10332000D888FFF77FFCE551C046C046A551E5515E
:10333000C046C046029BA5511889FFF773FCE551B2
:10334000C046C046A551E551C046C046029BA551A6
:103350005889FFF767FCE551C046C046A551E551C5
:10336000C046C046029BA5519889FFF75BFCE5511A
:10337000C046C046A551E551C046C046029BA55176
:10338000D889FFF74FFCE551C046C046A551E5512D
:10339000C046C046029BA55110330293029A5EAB11
:1033A000934200D097E703E004220000842200004B
:1033B000019B1888FFF736FCE551C046C046A55171
:1033C000E551C046C046019BA5515888FFF72AFC2D
:1033D000E551C046C046A551E551C046C046019BD7
:1033E000A5519888FFF71EFCE551C046C046A5517F
:1033F000E551C046C046019BA551D888FFF712FC95
:10340000E551C046C046A551E551C046C046019BA6
:10341000A5511889FFF706FCE551C046C046A551E5
:10342000E551C046C046019BA5515889FFF7FAFBFC
:10343000E551C046C046A551E551C046C046019B76
:10344000A5519889FFF7EEFBE551C046C046A5514E
:10345000E551C046C046019BA551D889FFF7E2FB64
:10346000E551C046C046A551E551C046C046019B46
:10347000A55110330193019A5EAB934200D097E7B8
:10348000039B023303936E2B00D02BE65FB0F0BD9D
:1034900070B504000D001822002101F063FD290021
:1034A0002000FCF7D6FF200070BDFFFF7F238121A5
:1034B00010B50A4C8EB018402070094A09016846C0
:1034C00000F0CAFA22785E21684600F010FB2478EA
:1034D000684600F00BFB20000EB010BD996B001089
:1034E000140A0000002210B5044B10201A70044B7F
:1034F00001321A70FFF7DAFF10BDC046996B001059
:103500009E6B0010A0228021030012064905D807F7
:1035100001D5284800E028481150A02280215B10E6
:1035200012068905D80701D5224800E0224811502B
:10353000A02280215B101206C905D80701D51D48BD
:1035400000E01D481150A02280215B1012060906E0
:10355000D80701D5174800E017481150A022802154
:103560005B1012064903D80701D5144800E014483F
:103570001150A02280215B1012068903D80701D5C3
:103580000E4800E00E481150A02280215B10120668
:10359000C903D80701D5094800E009481150802126
:1035A0005B100904002B01D0044B00E0044BD15008
:1035B0007047C04604220000842200000822000058
:1035C0008822000070B5244B00241A780123134090
:1035D000224A234D1370A34228D000262149224AB3
:1035E0000B68581C08601B789657DBB2A64203D0C4
:1035F0000322921B1341DCB21C4A2C7013689842C0
:1036000011D31B4B1868013018601868042801D1C9
:10361000002018601B681748DB02C3180B6080216C
:1036200009015B1813602878FFF76CFF200002F097
:1036300043FD114902F072F8011C1048FDF7B8FB78
:103640002B780F4A1C190F4B64101C801378591CDF
:1036500011700D4AD45470BD4C4B00109A6B001081
:10366000984B0010A84900109A270010C44A001077
:10367000E04A0010994B001000007F43444B0010BB
:10368000B86B00109C6B0010AC49001010B50C4CCE
:103690000C492000FDF7D0FB20001F21FDF7ABFBFC
:1036A00020000949FDF784FB0848094B5A21836132
:1036B0000023C362FDF719F8FFF714FF10BDC046E1
:1036C000444B001040270200CDCCCC3D684B00108D
:1036D000C535000010B5194C2000FDF781F8184BD6
:1036E000184A236000231849A361E3622000FDF714
:1036F00089F916491648FFF7CBFE16491648FFF719
:10370000C7FE16491648FFF7C3FE16491648FFF7CD
:10371000BFFE16491648FFF7BBFE16491648FFF7CD
:10372000B7FE16491648FFF7B3FE16491648FFF7CD
:10373000AFFE16491648FFF7ABFE10BD684B0010F0
:103740007479000000010010BD060000D0380100AF
:10375000AC4A0010D43A0100A06B0010D83C010024
:10376000C84A0010DC3E01009049001044290200C4
:10377000E44A0010482B0200FC4A00104C2D0200C5
:10378000144B0010502F02002C4B0010A4220100FB
:10379000504B0010024A13680A3313607047C0464A
:1037A000BC6B0010044B054A07215A6000229A6046
:1037B0001960034B1A60704710E000E0FF520700E9
:1037C000BC6B0010014B18687047C046BC6B001002
:1037D0007047FFFFA023802104201B0689015A584F
:1037E00010B5024380205A50294A4001995801439C
:1037F00080209950995840040143012099509958CC
:1038000001439950234924485A5802435A502348A7
:103810000021FDF79FFA00212148FDF79BFA0021C6
:103820002048FDF797FA00211F48FDF793FA002181
:103830001E48FDF78FFA00211D48FDF78BFA002185
:103840001C48FDF787FA00211B48FDF783FA002189
:103850001A48FDF77FFA00211948FDF77BFA00218D
:103860001848FDF777FA00211748FDF773FA002191
:103870001648FDF76FFA00211548FDF76BFA002195
:103880001448FDF767FA00211348FDF763FA10BDED
:103890000420000008200000F8FF070000070200D5
:1038A00004090200080B02000C0D0200100F0200B8
:1038B00014110200181302001C1502002017020048
:1038C00024190200281B02002C1D0200301F0200D8
:1038D00034210200382302003C250200036870B541
:1038E00004000D00013304D1242206490648FCF7E8
:1038F0002FFD6368002D01D0E26800E022691360AB
:1039000070BDC04681780000D0780000036810B513
:103910000400013304D12C2205490648FCF718FDA8
:10392000636960681B681840431E984110BDC0461B
:1039300081780000D078000010B50121FDF7DAF899
:1039400010BD70B504002500FFF7F6FF1835606B59
:10395000FCF782FF28000121FFF7C0FF01212000B2
:10396000FFF7BCFF606BFCF777FF00212000FFF73B
:10397000B5FF606BFCF770FF28000021FFF7AEFF7A
:10398000606BFCF769FF70BD10B50400FFF7D4FF52
:10399000606BFCF761FF00212000FFF79FFF606B69
:1039A000FCF75AFF200001211830FFF797FF606BEA
:1039B000FCF752FF01212000FFF790FF10BDF8B582
:1039C00004000F000825FFF7B7FF606BFCF744FF0A
:1039D0000121013DA9402600394020001836FFF79B
:1039E0007DFF01213000FFF779FF606BFCF734FFAA
:1039F00000213000FFF772FF002DE6D101212000E9
:103A0000FFF76CFFF8BD70B504002500FFF794FFC9
:103A1000183501212000FFF761FF01212800FFF781
:103A20005DFF00212000FDF765F804212000FDF76F
:103A30005BF8606BFCF710FF00212800FFF74EFFDA
:103A40002000FFF763FF0023984203D1606BFCF76F
:103A500003FF0123180070BDF8B5182604000D00FF
:103A600017000021320001F07DFA29002000A5197D
:103A7000FCF7D5FC32002800002101F073FA390070
:103A80002800FCF7CCFC2800FFF756FF2800042193
:103A9000FDF72AF82000FFF74FFF04212000FDF773
:103AA00023F823000026012730331E7028006763A7
:103AB000FFF742FF2000FFF73FFF39002000FFF72C
:103AC0000DFF31002800FFF709FF606BFCF7C4FE13
:103AD0002000FFF759FF2000FFF756FF2000FFF7F7
:103AE00053FF2000FFF750FF2000F8BD704770B56E
:103AF0000D0016000400FFF724FF01232900200019
:103B00009943FFF75CFF2000FFF77DFF31002000A5
:103B1000FFF755FF2000FFF776FF2000FFF734FF87
:103B200070BDFFFF10B5064B0648197801F004FB85
:103B3000054B186039235843044B188010BDC0460C
:103B40009B270010983A0000C86B0010C46B00104F
:103B500010B50248FDF79AFC10BDC046CC6B0010B2
:103B600030B5204A4B0087B05B0893421CDD1E4AEB
:103B7000934205DD02000B0003F090F907B030BD61
:103B800002AA00F013F903231840049A059B0128A8
:103B900018D002280DD000281ED0029803990124C5
:103BA000009401F075F8E9E70022002300F004FB1F
:103BB000E4E70298039900F0FFFA80231B069C4675
:103BC0006144DBE700900298039901F061F88023DB
:103BD0001B069C466144D1E70298039900F0ECFA79
:103BE000CCE7C046FB21E93FFFFFEF7F454AF8B530
:103BF000564692464B005B0D9A444D465F464446FE
:103C00005246F0B4894605000C000E000700132A46
:103C100022DC002A47DB52463B4B134198460B00FF
:103C200042461340034311D0384A394B02F082FA1E
:103C30000022002301F096FB002805D0002C41DB78
:103C40004E46434600279E43380031003CBC904618
:103C50009946A246AB46F8BD5246332A08DD80237A
:103C6000DB009A45F2D102000B0002F063FAEDE7A7
:103C7000284A9446012263445242DA409346024263
:103C8000E4D0224A224B02F055FA0022002301F030
:103C900069FB0028D8D0002C1ADB5B464E469F43B8
:103CA00038003100D2E7194A194B02F043FA0022DA
:103CB000002301F057FB0028C6D0002C16DB00279C
:103CC0000026C1E7802352465B0313419944B7E7BE
:103CD0005346142B12D03423524601279B1A9F407F
:103CE0007F19AF429B415B429944D6E76400640868
:103CF00025430027002DA7D0074EA5E7133B9C4680
:103D0000E144CAE701FCFFFFFFFF0F009C7500883C
:103D10003CE4377EEDFBFFFF0000F0BF30B5214AE9
:103D20004B0087B05B0893421EDD1F4A934205DDBE
:103D300002000B0003F0B2F807B030BD02AA00F099
:103D400035F803231840049A059B01281ED0022849
:103D500011D000281FD00298039900F02DFA80237B
:103D60001B069C466144E7E70023002200930023E2
:103D700000F08EFFE0E7012402980399009400F020
:103D800087FF80231B069C466144D5E70298039970
:103D900000F012FAD0E7012402980399009400F091
:103DA00077FFC9E7FB21E93FFFFFEF7FF0B54E4604
:103DB00057464546E0B4DC4B4E0090B017008946AC
:103DC00076089E4200DC81E0D84B9E4220DCD84A37
:103DD000002900DC89E1D74B03F060F8D54B0400E3
:103DE0000D009E4200D18AE0D34AD44B03F056F82E
:103DF00002000B0020003A607B60290003F04EF8BF
:103E0000CD4ACE4B03F04AF8B860F960012066E075
:103E1000CB4B9E4200DC8DE0CA4B9E4265DCCA491A
:103E200032158A46924453461B05F51A29000400B0
:103E300003F088FB03F0BCFB02000B00200029000C
:103E40000A920B9303F02AF80022C04B02F0ACFD5B
:103E50000290039103F076FB03F0AAFB04000D002F
:103E600002000B00029803990C940D9503F016F8CC
:103E70000022B64B02F098FD002200230E900F9115
:103E800001F056FA002800D14CE100230022200066
:103E9000290001F04DFA0222431E9841131AAC4A40
:103EA0003900019202220AA80092524600F09EFABE
:103EB0004B46002B13DA8022120694467B68404260
:103EC00063447B60FB686344FB6008E002000B0016
:103ED0003A607B60002200230020BA60FB6010B0D3
:103EE0001CBC90469946A246F0BD02000B0002F0B1
:103EF000D5FFB860F960386079600020EFE7D32221
:103F00008E4B520502F0CAFF924A934B04000D00FB
:103F100002F0C4FF02000B0020003A607B60290021
:103F200002F0BCFF8B4A8C4B02F0B8FFB860F9601E
:103F30000120D4E700F05CFF884A894B04000D00A3
:103F400002F032FD0022874B02F0F4F803F0FAFA97
:103F5000804603F02DFB764A764B0690079102F0DF
:103F600023FD02000B002000290002F097FF734B95
:103F700002900391069807996F4A02F015FD434697
:103F800004000D00049405951F2B30DC013B764A9C
:103F90009B009B589E422AD002000B000298039976
:103FA00002F07CFF02000B0005000C003A607B6011
:103FB000029803992A00230002F070FF049A059BDF
:103FC00002F06CFF06000B003200BA60FB604B464B
:103FD0004046002B00DB82E780231B069C4664449E
:103FE00061443D607C60BE60F960404277E7049ABE
:103FF000059B0298039902F051FF0B0002003A6002
:104000007B604B0036155B0D05000C00F31A102B7E
:10401000CEDD06980799D322484B520502F0C4FC26
:1040200004000D0002000B000298039902F036FF15
:1040300002000B00029803990892099302F02EFFE8
:1040400022002B0002F02AFF04000D0006980799B9
:10405000404A414B02F0A8FC22002B0002F01EFF58
:1040600002000B00049005910898099902F016FFD0
:1040700002000B003A607B604B005B0DF61A0500F6
:10408000089A099B0C0002920393312E90DD06984A
:104090000799B822304B920502F086FC04000D000F
:1040A00002000B000298039902F0F8FE0A000100DA
:1040B00013000291039202000898099902F0EEFEA3
:1040C00022002B0002F0EAFE04000D00069807997A
:1040D000264A274B02F068FC22002B0002F0DEFE8D
:1040E00002000B000492059358E7124B02F022F8ED
:1040F000104B04000D009E423CD00F4A0F4B02F0C3
:1041000019F802000B0020003A607B60290002F0E1
:10411000C5FE094A094B02F00DF8B860F9600120AC
:104120004042DCE60323BAE6FB21E93F7BD90240AB
:1041300000004054FB21F93F3163621A61B4D03D65
:10414000FB213941FFFFEF7FEAFBFFFF00007041D9
:10415000B48F00007370032E8A19A33B83C8C96D06
:10416000305FE43F0000E03F348F0000C14920256C
:104170009A837B39D3220D4B520501F0DBFF0C4AA9
:104180000C4B04000D0001F0D5FF02000B002000D5
:104190003A607B60290002F081FE054A054B01F080
:1041A000C9FFB860F9600120404298E661B4D03D93
:1041B0007370032E8A19A33BF0B54F464646C0B430
:1041C00087B000920193754B4F00814688467F0867
:1041D0009F4263DC03F0B6F9002800D1DAE04A46DA
:1041E00043464846414602F0DFFB04000D006C4A9E
:1041F0006C4B02F0D9FB6C4A6C4B01F09BFF220028
:104200002B0002F0D1FB6A4A6A4B02F047FE220003
:104210002B0002F0C9FB684A684B01F08BFF2200BB
:104220002B0002F0C1FB664A664B02F037FE22000B
:104230002B0002F0B9FB644A644B01F07BFF2200C3
:104240002B0002F0B1FB029003910022604B200092
:10425000290002F0A9FB029A039B06000F00200030
:10426000290002F0A1FB009A019B04000D004846C2
:10427000414602F099FB02000B002000290002F0E9
:104280000DFE02000B003000390002F007FE0200B4
:104290000B0000204F4902F001FE70E002000B000D
:1042A00002F082FB04000D003D4A3E4B02F07CFB15
:1042B0003D4A3E4B01F03EFF22002B0002F074FB12
:1042C0003B4A3C4B02F0EAFD22002B0002F06CFB63
:1042D000394A3A4B01F02EFF22002B0002F064FB1A
:1042E000374A384B02F0DAFD22002B0002F05CFB6B
:1042F000354A364B01F01EFF2B00220002F054FB22
:10430000354B029003919F429FDD344B00229F4228
:104310003ADC334900207B182E4916001F0002F0BA
:10432000BDFD049005910022294B2000290002F0D8
:104330003BFB32003B0002F0B1FD029A039B0600FA
:104340000F002000290002F02FFB009A019B0400BF
:104350000D004846414602F027FB02000B002000FA
:10436000290002F09BFD02000B003000390002F032
:1043700095FD02000B000498059902F08FFD07B02F
:104380000CBC90469946F0BD164B0026049205934E
:10439000154FC8E700200F49F1E7C046FFFF3F3E39
:1043A000D43888BEE9FAA8BDC4B1B4BD9EEE213EA2
:1043B000AD529C804F7E923E9015CB19A001FA3EE3
:1043C0007751C1166CC1563F4C5555555555A53FB3
:1043D0000000E03F0000F03F3233D33F0000E93FF0
:1043E0000000E0FF0000E73F0000D23FF0B5564676
:1043F0004D4644465F46F0B4904CA54409911900DF
:104400001400A89A0B938E4B9200D2580B00029086
:10441000013BE01E18211D0016000892009300F0D9
:104420008BFEC3430200DB171A4013001100013357
:104430000E929A009B1ADB001B1906934C1B7619EF
:1044400018D4A99BA5009C46361926AF65440136B1
:1044500007E0286803F0ACF8013403C70435B44220
:1044600008D0002CF5DA00200021013403C7043500
:10447000B442F6D1089B002B01DA00F0FDFB76ABCD
:104480000A939A46009B0B9A9946089B94469B4632
:10449000D300E3449C46029A059362449046009BF5
:1044A000002B00DABBE14B46DC0026AB9C46002625
:1044B0000027029D64442268636803CD02F074FA09
:1044C00002000B003000390001F034FE083C060009
:1044D0000F004545EFD15346C0C39A4601239C4681
:1044E000E144D945DBD1089A564913008C46634410
:1044F0009B0012A8844619000298614484460D91DD
:104500000599043361448B4612A98C4663440F938A
:104510000592059A0A98D30019000C938C46030063
:1045200063441E685F68002A34DD12AB99461300AD
:10453000454A804694466344DB00984474AB9A46EF
:104540000022424B3000390002F02EFA02F0FAFF4E
:1045500003F02EF800223E4B04000D0002F024FA76
:1045600002000B003000390002F098FC02F0EAFF74
:104570004B4601C39946434620001A685B682900F0
:1045800001F0D8FD08235B429C46E04406000F0082
:10459000D045D5D1069B30001A003900994600F06D
:1045A0002BFCFF2300229B0504000D0002F0FCF908
:1045B000FFF71CFB0022274B02F0F6F902000B006C
:1045C0002000290002F06AFC04000D0002F0BAFF8E
:1045D000804602F0EDFF02000B002000290002F0EF
:1045E0005DFC4C4606000F00002C00DCF8E0059B4B
:1045F00018205A1E920012AB9B58001B1900014153
:10460000884481405B1A12A98B501722121B134158
:104610000793079B002B4BDD01239C46059BE04441
:10462000002B00DCF2E280251096119712AB0021DE
:10463000002409486D04059F19E0C04684FDFFFF72
:10464000BC900000FEFFFF3FFFFFFF1F0000703E19
:104650000000704100002040FFFFFF00002A02D050
:10466000AA1A1A600134013104338F4209DD1A6835
:10467000002CF3D0821A01311A60012404338F42D6
:10468000F5DC109E119F069B002B0EDD012B00D147
:10469000B1E0022B09D1059B12A95A1E920012AB60
:1046A0009B5810939B029B0A8B50079B022B7ED03A
:1046B000002300223000390000F03AFE059B00285C
:1046C00000D16BE208995A1E914210DCBF490F9845
:1046D0008C4612A963448C4600219B0063441C68ED
:1046E000043B21438342FAD1002900D0B5E0089B66
:1046F00012AA013B9B00D358002B00D084E2012278
:104700000D9B043B596801320029FAD005990B0032
:104710008C46013362440792934242DC0E9A9446DF
:10472000A99A634492460B9A9B00944626AA904607
:104730009A44059B0A9A6344DB0098440C9B944678
:104740009946079BE144DB00634405935346186890
:1047500002F02EFF434618605960009B002B23DBBC
:10476000444600260027029D2268636803CD02F0BC
:104770001BF902000B003000390001F0DBFC083CA3
:1047800006000F005D45EFD14B469E60DF600423BD
:104790009C460433E2449C46059BE144E044994531
:1047A000D4D1079B0593B4E600260027ECE732003E
:1047B0003B000020864902F071FB06000F00002C30
:1047C00000D175E7069A0020814900F015FB020030
:1047D0000B003000390002F061FB06000F0067E7B4
:1047E000069B002B12D1059B12AA013B9B00D558BA
:1047F000EB1507930DE7059B12A95A1E920012AB09
:104800009B5810935B025B0A8B504EE70022714B62
:1048100000F0B2FD00280ED10023079348E753466D
:1048200000260027C0C39A4601239C46E144D9458F
:1048300000D034E657E601239C4601330793059BDD
:10484000E044002B00DDEEE632003B000020604932
:1048500002F024FB06000F002AE743460B93069B59
:1048600012A8183B190006939300C3580092002B1E
:104870000FD156481300844612A8634484469B0017
:104880006344043B5868013A18390028F9D0009273
:104890000691069A00204E4900F0AEFA009B0400F3
:1048A0000D00002B00DAB3E112AA94469F00DB0052
:1048B00067449C460A9A05936244934616003868FA
:1048C00002F076FE22002B0002F06EF8424B3060C0
:1048D000716000222000290002F066F8083E74ABE7
:1048E00004000D00043FB342E9D100239A464EABC9
:1048F0000293089B99464B4600260027002B21DB9C
:104900008020364B5D469846C00535490026002775
:10491000002408E008239C460835E044A24511DB4A
:104920004346186859682A686B6802F03DF802002F
:104930000B003000390001F0FDFB013406000F00D0
:10494000A145E7DA029A53469446DB0063441E60B1
:104950005F6001239C46093BE2449C4674ABE34400
:104960009B45C8D1029B9946A89B022B00DD82E0A3
:10497000002B37DC1DD1059B00254B441E00002475
:10498000326873682800210001F0D4FB009B050009
:104990000C00083E5A1E0092F2D2079B002B03D057
:1049A00080231B069C4664442A00230009990A6060
:1049B0004B6007200B9B18409F239B009D443CBCF1
:1049C00090469946A246AB46F0BDC046FFFFFF3F6A
:1049D0000000F03F0000E03F0000703ED09000007B
:1049E000FB21F93F059B00204B441E0000214CAFEA
:1049F00032687368083E01F09DFBBE42F8D1079B08
:104A0000002B24D08023099A1B06CB18106053601A
:104A10000B0002004E984F9902F040FA009B002BC9
:104A20000BDD012450AD0CCD01F084FB009B013463
:104A3000A342F8DA079B002B03D080231B069C4679
:104A400061440B00020009998A60CB60B1E7020063
:104A50000B00099C226063600B0002004E984F9986
:104A600002F01CFA009B002BDBDC0B000200099912
:104A70008A60CB609DE7A89B032B9AD1009B002BFB
:104A800000DCE3E07F4A059B94464B441E685F6868
:104A9000009B63449A46DB004B4498464CAB9B46D4
:104AA00043465C681B681800210032003B000290FE
:104AB000039101F03FFB04000D0002000B0002987F
:104AC000039902F0EBF93B00320001F033FB43465F
:104AD0009860D9601C605D6008235B429C46E0449E
:104AE00026002F00C345DBD1009B012B00DCADE08D
:104AF000059BC8464B441E685F685346DB009B46D7
:104B0000D844434630005C681B6839000093019428
:104B10001A00230001F00EFB04000D0002000B0040
:104B20000098019902F0BAF93B00320001F002FB53
:104B300043469860D9601C605D6008235B429C46D8
:104B4000E04426002F00C145DBD15D46002700244C
:104B500008354D4450AE2A686B683800210001F0DA
:104B6000E9FA083D07000C00AE42F4D1079B002B88
:104B700071D08021099A4E9B090613604B468C46E2
:104B80005B686444634453604B469B681761936061
:104B90004B46DB6854616344D3600AE79946434659
:104BA0000B93069B30005A42390000F025F9002291
:104BB000354B04000D0000F0DFFB002832D0334BF2
:104BC00000222000290001F0EFFE02F0BBFC4A4663
:104BD0000600970002F0ECFC00222B4B01F0E4FEF3
:104BE00002000B002000290002F058F902F0AAFC94
:104BF00012AAD0514A46069B0132183300920693FE
:104C0000930012AAD65044E601227FE500243AE53B
:104C1000A89B022B14DC002B0FDC00D0C9E600257A
:104C20000024BAE64B46200029009E0002F08AFCD0
:104C300012AB98514B4600932BE600200021DEE694
:104C40004EAB9946A89B032B00D0B2E6079B0027EA
:104C50000024002B8DD14E9A4F9B09990A604B601E
:104C60004B469A68DB68009201938A60CB603A00F9
:104C700023000A614B619CE676AB0A930B9BDB0039
:104C8000059330E4FFFFFF1F000070410000703EFD
:104C9000F0B54F464646C0B487B000920193464AED
:104CA0004B00814688465B08934205DC02F04AFCD3
:104CB0004146031E484666D04A464346484641465A
:104CC00001F072FE04000D0002000B004846414650
:104CD00001F06AFE394A3A4B06000F002000290015
:104CE00001F062FE374A384B02F0D8F822002B0060
:104CF00001F05AFE354A364B01F01CFA22002B0017
:104D000001F052FE334A344B02F0C8F822002B0067
:104D100001F04AFE314B324A01F00CFA0E9B029030
:104D20000391002B34D00098019900222D4B01F003
:104D30003BFE029A039B049005913000390001F07C
:104D400033FE02000B000498059902F0A7F8220038
:104D50002B0001F029FE009A019B02F09FF8224AE5
:104D600004000D00214B3000390001F01DFE02004F
:104D70000B002000290001F0DDF902000B0048467D
:104D8000414602F08BF807B00CBC90469946F0BD46
:104D900002000B002000290001F006FE124A134B0E
:104DA00002F07CF832003B0001F0FEFD4A4643462B
:104DB00001F0C0F9E7E7C046FFFF3F3E7CD5CF5A80
:104DC0003AD9E53DEB9C2B8AE6E55A3E7DFEB1578C
:104DD000E31DC73ED561C119A0012A3F1111813FD2
:104DE000A6F810110000E03F495555555555C53FEF
:104DF00049004B08190070474B0070B55B0D14005B
:104E00000A00002B1AD14B005B08034315D0002287
:104E1000224B01F0C9FD224B0A009C4222DB4B00D1
:104E20005B0D363B1F4DE318AB4220DC002B0DDD44
:104E30001D4C1B0522401A43110070BD1B4DAB4297
:104E4000F0D102000B0001F075F9F6E71D003535D1
:104E500018DA174B02009C420ADC0B001548164971
:104E600000F032F8134A144B01F09EFDE5E7020012
:104E70000B001248124900F027F8104A104B01F0BD
:104E800093FDDAE7084C363322401B051343190023
:104E900000220C4B01F088FDCFE7C04600005043D4
:104EA000B03CFFFFFE070000FFFF0F80FF07000080
:104EB00050C3000059F3F8C21F6EA5019C7500880D
:104EC0003CE4377E0000903C30B54A00DB0FDB0746
:104ED00052081A43110030BD084B10B50400002BD6
:104EE00002D0002100E000BF054B1868836A002B48
:104EF00000D098472000FBF771FBC046000000007F
:104F0000709100000E4B70B500251E000D4CE41A88
:104F1000A410A54204D0AB00F35898470135F8E738
:104F200004F0A8F9084B00251E00084CE41AA41050
:104F3000A54204D0AB00F35898470135F8E770BD9F
:104F4000809200008092000080920000AC920000ED
:104F500010B5034B0100186800F00CF810BDC046F6
:104F6000FC27001003008218934202D0197001330D
:104F7000FAE7704770B50500002944D00C1F23687C
:104F8000002B00DAE418280000F040F81E4A1368ED
:104F90001100002B02D16360146031E0A3420DD9EF
:104FA0002268A018834203D118685B6882182260C7
:104FB00063600C6024E0A24203D813005A68002A00
:104FC000F9D11E689819A0420BD1216871185818A0
:104FD0001960824214D110685268411819605A60F1
:104FE0000EE0A04202D90C232B6009E02168601872
:104FF000824203D1106852684118216062605C608F
:10500000280000F004F870BDD06B001070477047A6
:1050100002B4714649084900095C49008E4402BC4B
:105020007047C046002243088B4274D303098B4269
:105030005FD3030A8B4244D3030B8B4228D3030C68
:105040008B420DD3FF22090212BA030C8B4202D30A
:105050001212090265D0030B8B4219D300E0090A32
:10506000C30B8B4201D3CB03C01A5241830B8B423B
:1050700001D38B03C01A5241430B8B4201D34B0324
:10508000C01A5241030B8B4201D30B03C01A524189
:10509000C30A8B4201D3CB02C01A5241830A8B420E
:1050A00001D38B02C01A5241430A8B4201D34B02F7
:1050B000C01A5241030A8B4201D30B02C01A52415B
:1050C000CDD2C3098B4201D3CB01C01A524183090F
:1050D0008B4201D38B01C01A524143098B4201D349
:1050E0004B01C01A524103098B4201D30B01C01A74
:1050F0005241C3088B4201D3CB00C01A52418308EE
:105100008B4201D38B00C01A524143088B4201D31A
:105110004B00C01A5241411A00D20146524110467A
:105120007047FFE701B5002000F0F0F802BDC0466F
:105130000029F7D076E7704703460B437FD400225F
:1051400043088B4274D303098B425FD3030A8B421B
:1051500044D3030B8B4228D3030C8B420DD3FF2285
:10516000090212BA030C8B4202D31212090265D053
:10517000030B8B4219D300E0090AC30B8B4201D306
:10518000CB03C01A5241830B8B4201D38B03C01A4D
:105190005241430B8B4201D34B03C01A5241030BC4
:1051A0008B4201D30B03C01A5241C30A8B4201D375
:1051B000CB02C01A5241830A8B4201D38B02C01A20
:1051C0005241430A8B4201D34B02C01A5241030A97
:1051D0008B4201D30B02C01A5241CDD2C3098B427C
:1051E00001D3CB01C01A524183098B4201D38B01F9
:1051F000C01A524143098B4201D34B01C01A52419C
:1052000003098B4201D30B01C01A5241C3088B42E0
:1052100001D3CB00C01A524183088B4201D38B00CB
:10522000C01A524143088B4201D34B00C01A52416D
:10523000411A00D201465241104670475DE0CA0F44
:1052400000D04942031000D34042534000229C4604
:1052500003098B422DD3030A8B4212D3FC2289010E
:1052600012BA030A8B420CD3890192118B4208D3E4
:10527000890192118B4204D389013AD0921100E046
:105280008909C3098B4201D3CB01C01A524183095A
:105290008B4201D38B01C01A524143098B4201D387
:1052A0004B01C01A524103098B4201D30B01C01AB2
:1052B0005241C3088B4201D3CB00C01A524183082C
:1052C0008B4201D38B00C01A5241D9D243088B4282
:1052D00001D34B00C01A5241411A00D20146634625
:1052E00052415B10104601D34042002B00D5494289
:1052F000704763465B1000D3404201B5002000F0C8
:1053000005F802BD0029F8D016E770477047C0467F
:105310008446101C62468C46191C634600E0C04659
:105320001FB501F0D7FA002801D40021C8421FBDE3
:1053300010B501F02BFA4042013010BD10B501F05C
:10534000C9FA002801DB002010BD012010BDC046B5
:1053500010B501F0BFFA002801DD002010BD0120CA
:1053600010BDC04610B501F051FA002801DC002044
:1053700010BD012010BDC04610B501F047FA00284D
:1053800001DA002010BD012010BDC0468446081C73
:105390006146FFE71FB500F047FB002801D400215C
:1053A000C8421FBD10B500F0D3FA4042013010BD15
:1053B00010B500F039FB002801DB002010BD0120F2
:1053C00010BDC04610B500F02FFB002801DD002005
:1053D00010BD012010BDC04610B500F0E1FA002854
:1053E00001DC002010BD012010BDC04610B500F04A
:1053F000D7FA002801DA002010BD012010BDC046F8
:105400009E2110B5C905041CFFF7F0FF002803D149
:10541000201C00F0E7FD10BD9E21201CC90500F0F6
:105420005BFC00F0DFFD80231B069C466044F2E736
:10543000F8B54A02430244004E00C50F240E28006E
:105440009B09360EC90F92098D4259D0A01B002826
:1054500000DC8DE0002E1AD1002A00D079E05A0736
:1054600004D00F221A40042A00D004335A0138D540
:105470000134FF2C00D189E028009B015B0AE4B2D3
:105480005B02E4055B0A2343C0071843F8BDFF2C09
:10549000E5D08021C9040A431B2800DD89E01600FD
:1054A0002021C640081A8240511E8A4132439B1A6D
:1054B0005A0114D59B019E09300002F09BF9053872
:1054C0008640844265DC041B330020200134E34025
:1054D000041BA640721E964100243343BFE75A07BF
:1054E000BFD1DF082800FF2C2FD1002F00D187E08B
:1054F0008022D20313003B435B025B0AFF24BFE719
:10550000A11B002949DD002E29D0FF2CA7D0802621
:10551000F60432431B2900DD8DE017002026CF4022
:10552000711A8A40511E8A413A439B185A01D6D5B6
:105530000134FF2C64D0012276491A405B080B40ED
:1055400013438CE7031ECAD100207B025B0AE4B23E
:1055500096E701380028AAD0FF2C9DD17FE7002ACA
:1055600000D17CE701390029DFD0FF2CD2D176E7CA
:10557000002820D1601CC0B2012853DD80279E1A6C
:10558000FF0437402FD0D61A0D0095E728000023DE
:1055900076E7614B241A334061E700294DD1611C45
:1055A000CEB2012E2FDDFF292AD09B185B080C00FC
:1055B00055E701227BE7002C1BD1002B5BD0C043B9
:1055C00000280CD0FF2E7ED01B2800DD92E01D00AD
:1055D0002024C540201A8340581E83412B43D31AF0
:1055E00034000D0064E7002E00D065E700200024A1
:1055F000ABE7FF2E67D08024E40440422343E3E777
:10560000FF2400233CE7002C61D1002B7ED0002A30
:1056100000D124E79B185A0100D460E73E4A0C00F1
:1056200013401CE7002C1ED1002B2FD1002A66D07E
:1056300013000D0013E7012277E7002C1FD1002B88
:105640005AD0C94300290BD0FF2E50D01B295FDC54
:105650001F002024CF40611A8B40591E8B413B43D1
:105660009B18340062E7002B1CD1002A4AD013009B
:105670000D00FF24F3E6130034000D00EFE6FF2ECB
:1056800035D08024E40449422343DFE7002A00D1D7
:10569000E5E68027981AFF04074000D152E7D31AA5
:1056A0000D00DCE6FF24002A00D1D8E68020DB08CC
:1056B000C003034204D0D208024201D113000D00FE
:1056C000DB00FF24CBE61300FF240D00C7E6002B10
:1056D0000DD0FF24002A00D1C1E68021DB08C903D8
:1056E0000B42EDD0D2080A42EAD11300E8E71300DA
:1056F000FF24B4E6012372E713003400AFE600276D
:10570000002022E780270020FF03F1E61300A6E631
:105710000123A5E7FFFFFF7DFFFFFFFBF0B5564626
:1057200044465F464D46F0B444024600C70F83B07E
:105730008846650A360EBA463DD0FF2E22D0002399
:10574000EC00802599469B46ED0425437F3E434669
:105750005C025800DB0F640A000E984636D0FF2822
:1057600030D080230021E400DB041C437F38301A52
:105770000190484642460843724E800030587A40B5
:1057800013008746002D44D108239946063B9B46CB
:10579000DDE70122FF2000241A406402C305640AE9
:1057A000D2071C431443200003B03CBC90469946EA
:1057B000A246AB46F0BD002D20D104239946033B01
:1057C0009B46C4E7002C17D1022102E0002C0AD12D
:1057D0000121321A01924A4643460A435A4892002E
:1057E00082587B409746200002F004F8431F763031
:1057F0009C4040420021BAE70321B8E7280001F0AD
:10580000F9FF431F9D4000237630464299469B4650
:105810009DE70C239946093B9B4698E7802400228C
:10582000E403FF20B9E70024C2468B465A4653469C
:10583000022AAED0032A7DD0012A31D101220020D4
:105840001A400024A9E70122101A1B2856DD1A402D
:1058500000200024A1E78023DB031D424BD18023DD
:10586000DB032B435C02640A3A00FF2095E76D01DD
:105870006001854230D2019A0024013A01921B2234
:105880000127290064006D00002901DBA84201D82E
:105890002D1A3C43013A002AF3D16A1E95412C434C
:1058A00001987F300028CEDD620704D00F2222400D
:1058B000042A00D00434220103D5244A019814405C
:1058C0008030FE2800DD64E70122A401640AC0B232
:1058D0001A4062E72C00A9E72D1A1A220124CFE70B
:1058E0006B02BCD500248023DB031C436402640AE2
:1058F0004246FF2051E71C42B3D1F4E721002022A9
:10590000C140101A8440621E94410C43620704D0C7
:105910000F222240042A00D00434620104D501225F
:1059200001201A40002438E70122A401640A1A4029
:10593000002032E78023DB031C436402640A5246E2
:10594000FF202AE774910000B4910000FFFFFFF7E9
:10595000430270B542004C005D0AC30F4802120EAC
:10596000460A240EC90FFF2A0FD0FF2C11D00120A8
:10597000A24200D070BDB542FCD18B420DD0002AAE
:10598000F8D12800431E9841F4E70120002DF1D101
:10599000EBE70120002EEDD1E9E70020EAE7C04661
:1059A0004302F0B542005D0AC30F4802440A4800B2
:1059B000120E000EC90FFF2A1FD0FF2822D0002A86
:1059C00009D16E426E4100280FD1002C0DD100206C
:1059D000002D09D005E0002801D1002C01D08B4218
:1059E00013D0584201231843F0BD002EF7D048428F
:1059F0004141012049420843F6E7002DDDD0022055
:105A00004042F1E7002CDAD0F9E78242E9DC04DB1E
:105A1000A542E6D80020A542E6D2584243410120E3
:105A20005B421843E0E7C0464302F0B542004C0039
:105A30005E0AC30F4802120E450A240EC90FFF2A40
:105A400017D0FF2C19D0002A0BD170427041002CC6
:105A500017D0002807D0484241410120494208435D
:105A6000F0BD002C13D08B4214D0584201231843B0
:105A7000F6E70220002EF3D1E3E70220002DEFD15C
:105A8000E1E7002DE5D10020002EE9D0EDE7002D63
:105A9000E9D1EAE7A242E8DC04DBAE42E5D8002027
:105AA000AE42DDD25842434101205B421843D7E762
:105AB000F0B557464E4645464300E0B44602884698
:105AC000760A1F0EC40F002F47D0FF2F25D00023CA
:105AD00080259A469946F600ED042E437F3F4346C3
